:100000000EC028C027C077C125C0DCC123C022C0D4
:100010006BC220C01FC01EC01DC01CC01BC011244D
:100020001FBECFE5D2E0DEBFCDBF11E0A0E6B0E05D
:10003000ECE9F8E002C005900D92A036B107D9F7BF
:1000400021E0A0E6B1E001C01D92AE3DB207E1F7AC
:100050007BD322C4D5CF83E880BF089589B780645D
:1000600089BF08959C0140E050E060E970ED83E0B5
:1000700090E0DAD32DBD1092D9011092D7010895E6
:100080001ABC83B7856083BF88EF82BF1092D50109
:10009000089589B7826089BF089589B78D7F89BF28
:1000A00008958EE087BB81E388BB0895C198C3980B
:1000B000C298F894889508956093DA011092DC0153
:1000C0001092DB011092D80181E08093D90108954C
:1000D0008091D9010895C1981092D901089588237B
:1000E00029F090918B019F5F90938B019091D301A8
:1000F000891769F09091D401903510F02DE101C07D
:100100002BE0920F9093D4018093D30105C080918E
:10011000D4018C5E8093D4018091D401803A08F49C
:1001200061C02091930130919401369527953093C9
:1001300094012093930190918B01953028F03068C1
:100140003093940120939301805A8093D4011092AC
:100150008B018091D0018823A9F18091D1018F5F1B
:100160008093D101883070F18091DD0181110CC044
:1001700080919401863019F48093DD0121C01092A2
:10018000D0011092D4011CC090919401E0919A0189
:1001900081E08E0F80939A01F0E0E859FE4F908342
:1001A000873071F410929A0180916E01811104C020
:1001B00081E08093640104C01092D0011092D401B8
:1001C0001092D1018091930190919401853B904FC1
:1001D00049F481E08093D0011092D1011092DD01A9
:1001E000109264010895E82FF0E0EE0FFF1FE4572E
:1001F000FE4F2081318181E0232B09F080E00895BA
:10020000E82FF0E0EE0FFF1FE457FE4F718360838D
:1002100008952FEF260F662369F0A82FB92F80E0ED
:10022000ED918E27E82FF0E0E05AFF4F80812150BA
:10023000B8F7089580E0089586B38295817091E0C3
:1002400089270895379A3E983F9887B18C6087B97F
:1002500039983898339A82E090E09093990180938E
:1002600098018091980190919901892BD1F7109272
:10027000D201109267011092660110929B01369A8A
:10028000089580919B018823E1F38091660190910C
:10029000670196958795929582958F7089279F70B3
:1002A00089279093670180936601853521E0920745
:1002B000F0F48D3E9105E8F09C01220F331F220FD0
:1002C000331F220F331FAC01421B530B9A01220F25
:1002D000331F820F931F8C5B9E4E67E670E090D2B7
:1002E0008EE1860F8E3131F48FE1860F08958EE115
:1002F00008958BE208951F920F920FB60F9211246A
:100300002F933F934F935F936F937F938F939F931D
:10031000AF93BF93EF93FF938091D901882381F12D
:100320008091DB0191E0980F9093DB01811128C04F
:10033000E091DC018091DA01E81710F0CCDE20C0FA
:10034000F0E0E258FE4F808190E00090D80102C0BA
:10035000959587950A94E2F780FF02C0C19A01C083
:10036000C1988091D8018F5F883018F48093D801AC
:1003700007C01092D8018091DC018F5F8093DC016F
:100380008091DB01883010F01092DB018091D70161
:10039000882339F08091D901811103C08091D60161
:1003A0009EDEFF91EF91BF91AF919F918F917F91D1
:1003B0006F915F914F913F912F910F900FBE0F90D2
:1003C0001F9018951F920F920FB60F9211242F9322
:1003D0003F934F935F936F937F938F939F93AF93CD
:1003E000BF93EF93FF9388EF82BF78948091D501FC
:1003F0008F5F8093D5012091980130919901232B33
:1004000051F0209198013091990121503109309398
:100410009901209398018A3009F055C01092D501B6
:1004200080E090E0FC01EE0FFF1FE457FE4F2081BB
:100430003181232B59F0FC01EE0FFF1FE457FE4FD3
:10044000208131812150310931832083019683300D
:10045000910541F781E0C7DE811135C0EDDE8823CB
:10046000E1F068EE73E081E0CBDE809192018A3F9B
:1004700018F48F5F8093920180919201833038F05D
:1004800010927C011092850191E090939501883C37
:10049000D0F081E08093870116C080917C018A3F73
:1004A00018F48F5F80937C0180917C01833058F039
:1004B000109295011092870110927D011092920185
:1004C00081E080938501FF91EF91BF91AF919F9162
:1004D0008F917F916F915F914F913F912F910F90ED
:1004E0000FBE0F901F9018951F920F920FB60F928C
:1004F00011242F933F934F935F938F939F938091FA
:10050000D2018F5F8093D2018132B0F024B195B1D6
:1005100030E0392B4091660150916701240F351F5F
:100520003093670120936601803450F081E080931E
:100530009B013398369837988091D201803408F423
:10054000369A9F918F915F914F913F912F910F908C
:100550000FBE0F901F9018959F92AF92BF92CF92AF
:10056000DF92EF92FF920F931F93CF93DF9310923E
:10057000920110927C0110929501109287011092C5
:100580008501C39A68EE73E081E03ADED4E1FF248E
:10059000F39410E0A12C00E0C1E0E12CBE2C0F2E62
:1005A000F3E0DF2EF02D6894992492F8CC2E8C2F56
:1005B0001ADE81117CC080916001823009F44AC04A
:1005C00028F4882351F0813089F0F1CF833009F489
:1005D00046C0843009F467C0EACF80918501882342
:1005E00031F3C0926001C398FE2CE1CF81E0F81294
:1005F00006C080918501882311F00F5FFE2C809149
:100600008701882369F0C39A17DE8111D0CF82E079
:1006100080936001C3986CE271E0F2DDA02EC7CF39
:1006200080919501882319F2FC2EC1CF82E0DBDD99
:100630008823E1F368EE73E08C2FE2DD112319F0DB
:10064000C3981B2D03C0C39A01501C2F64E670E0B1
:1006500082E0D6DD0111EACFD0926001A8CF80916F
:100660008701882309F4A3CF8FEF8A0D8F3020F400
:100670006A2D81E090E002D1909260016AE070E022
:1006800082E0BEDD94CF82E0AEDD8823E1F3D1507D
:10069000112319F0C3981B2D02C0C39A1C2D6AE0C8
:1006A00070E082E0ADDDD111EECFC39880CFC3986A
:1006B000DF91CF911F910F91FF90EF90DF90CF903E
:1006C000BF90AF909F900895CEE7D1E080E68883F9
:1006D00081EA8983809186018A83809165018B8379
:1006E00064E0CE0196DD8C838EE78D838FE08E8370
:1006F000109263011092620110929C011092970176
:1007000010928A01CADCE7DCC29A80916201909162
:1007100063018639910538F01092630110926201ED
:1007200010929C01C3DCD4DC8111EECF8091620178
:10073000909163010196909363018093620167E059
:100740008EE791E0B9DCE0CFF89485DC80ED97E0AE
:1007500089DCA7DC95DC479A16B881B5886181BD34
:1007600081B5877F81BD85B7806185BF85B7877F6C
:1007700085BF85B7806285BF789482E090E076D0AF
:1007800081BF6CDC86DC62E070E080E039DDC0E0D7
:1007900005C0B49903C0C83C08F4CF5F80E023DDF6
:1007A0008823B9F3C83010F0D7DE04C060E070E0F1
:1007B00081E026DD81E090E059D080938601815070
:1007C0008F30C8F0C4E1D0E001E010E082E00BDD42
:1007D000882371F0DD2319F0C398D12F02C0C39A8A
:1007E000D02F6AE070E082E00BDDC15079F702C0E3
:1007F000C111ECCF5BDC26DD44DD8093650164DF55
:10080000AA1BBB1B51E107C0AA1FBB1FA617B70736
:1008100010F0A61BB70B881F991F5A95A9F7809552
:100820009095BC01CD010895A1E21A2EAA1BBB1B15
:10083000FD010DC0AA1FBB1FEE1FFF1FA217B307AC
:10084000E407F50720F0A21BB30BE40BF50B661FC2
:10085000771F881F991F1A9469F760957095809586
:1008600090959B01AC01BD01CF010895E199FECFA8
:100870009FBB8EBBE09A99278DB30895262FE199EF
:10088000FECF1CBA9FBB8EBB2DBB0FB6F894E29A6D
:0C089000E19A0FBE01960895F894FFCF86
:10089C00EAD496A8122C6E507F41033D87B9FBC554
:1008AC00A59BD9E75D63211F300E4C72C8F6B48A44
:1008BC00744A08368CB2F0CEE1DF9DA31927655B34
:1008CC003B054779C3FDBF81AE90D2EC56682A1424
:1008DC00B38DCFF14B75370926185A64DEE0A29C14
:1008EC00FCC280BE043A78466957152B91AFEDD304
:1008FC002D13516FD5EBA997B886C4FA407E3C02F4
:10090C00625C1E209AA4E6D8F7C98BB50F31734DE3
:10091C005866241AA09EDCE2CDF3B18F350B4977D3
:10092C0017296B55EFD193AD82BCFEC07A440638C3
:10093C00C6F8BA843E00427C536D2F11AB95D7E9B3
:10094C0089B7F5CB714F0D331C22605EE4DA98A6A3
:10095C00013F7D43F9C785BB94AAE8D66C52102E93
:10096C004E70320CB688CAF4DBE5A799231D5F6183
:10097C009FA1E3DD67591B250A347648F2CC8EB073
:10098C00D0EEAC922816546A457B3907BD83C1FF63
:00000001FF
