:100000000EC0B0C027C026C025C033C023C022C048
:1000100021C020C01FC01EC01DC01CC01BC0112499
:100020001FBECFE5D2E0DEBFCDBF10E0A0E6B0E05E
:10003000E8EDF2E002C005900D92A036B107D9F7C5
:1000400020E0A0E6B0E001C01D92A638B207E1F7BB
:1000500023D140C1D5CF1ABC83B7846083BF12BE01
:10006000089589B7826089BF089589B78D7F89BF58
:1000700008951F920F920FB60F9211248F939F93A2
:1000800080916100909162008436910548F48091DE
:1000900061009091620001969093620080936100EC
:1000A00012BE809166009091670001969093670060
:1000B000809366008091660090916700C29771F40A
:1000C00010926500809160008F5F80936000809146
:1000D000600081BF10926700109266009F918F911F
:1000E0000F900FBE0F901F901895CF93DF938091C4
:1000F0006400882371F1A2E7B0E0ECE7F0E040E0B3
:1001000050E0D0E06FEF7FEF2D91C19130E0C90159
:1001100082959295907F9827807F9827821B930BDA
:100120009C0122953295307F3227207F3227820F23
:10013000931F8C0F911D8617970710F4D42FBC01C5
:100140004F5F5F4F8091640090E048175907E4F2D9
:1001500001C0D0E0ED2FF0E0E859FF4F8081DF9142
:10016000CF9108951F920F920FB60F9211242F93E3
:100170003F934F935F936F937F938F939F93AF932F
:10018000BF93EF93FF93789480916500811112C023
:1001900080916100909162000B9760F01092620074
:1001A00010926100109267001092660012BE81E00A
:1001B0008093650080916500813009F05AC080917C
:1001C0006100909162000B9708F453C01092620096
:1001D0001092610080916600909167004A9768F0E4
:1001E000C19A43DF8BB78F7B8BBF78947EDF682FFC
:1001F00082E090E061D0C19A39C080916600909110
:100200006700489798F1E0916400809166009091B2
:100210006700F0E0EE58FF4F8851808392B78091DD
:100220006300891748F4E091640082B7F0E0EE586B
:10023000FF4F8956808309C0E091640092B7F0E0D7
:10024000EE58FF4F89E6891B8083E091640080911E
:100250006000F0E0E859FF4F8083809164008930AE
:1002600028F4809164008F5F8093640082E0809323
:10027000650080916500FF91EF91BF91AF919F91D3
:100280008F917F916F915F914F913F912F910F903F
:100290000FBE0F901F901895DEDEB99AC198BA98DC
:1002A000C29885B7836085BF8BB780648BBF8AE0B7
:1002B00081BFD7DE7894FFCF262FE199FECF1CBAFD
:1002C0009FBB8EBB2DBB0FB6F894E29AE19A0FBE8E
:0802D00001960895F894FFCF98
:00000001FF
