S012000041544D454741385F52582E7372656322
S113000012C02CC02BC02AC029C028C061C226C07F
S113001025C0CAC223C022C00BC320C01FC01EC03B
S11300201DC01CC01BC011241FBECFE5D4E0DEBF21
S1130030CDBF11E0A0E6B0E0EAEAF7E002C0059027
S11300400D92A036B107D9F721E0A0E6B1E001C0D6
S11300501D92A13EB207E1F748D3A5C3D1CF1FBC7F
S11300608EB589608EBD089589B7806189BF089572
S113007013BE83B7856083BF84E682BF089589B7C2
S1130080816089BF08958830F8F0662371F048B321
S1130090877021E030E0B90102C0660F771F8A95AE
S11300A0E2F7CB01842B88BB089548B3877021E025
S11300B030E0B90102C0660F771F8A95E2F7CB01E1
S11300C08095842388BB0895662371F042B38770BA
S11300D021E030E0B90102C0660F771F8A95E2F78C
S11300E0CB01842B82BB089542B3877021E030E0BA
S11300F0B90102C0660F771F8A95E2F7CB0180959C
S1130100842382BB08958830F8F0662371F047B3E6
S1130110877021E030E0B90102C0660F771F8A952D
S1130120E2F7CB01842B87BB089547B3877021E0A6
S113013030E0B90102C0660F771F8A95E2F7CB0160
S11301408095842387BB0895662371F041B387703B
S113015021E030E0B90102C0660F771F8A95E2F70B
S1130160CB01842B81BB089541B3877021E030E03B
S1130170B90102C0660F771F8A95E2F7CB0180951B
S1130180842381BB08959C0140E050E060E271EA61
S113019087E090E0C0D2832F99278BBD2ABD61E010
S11301A08091D701B0DF60E08091DB01ACDF109279
S11301B0DC011092D9010895883060F026B330E054
S11301C08770A90102C0559547958A95E2F7CA013F
S11301D08170089520B330E08770A90102C055955D
S11301E047958A95E2F7CA01817008958093DB01EF
S11301F0089560E08091D70146DF1092DC010895F4
S11302008091D90181111DC081E08093D9011092A0
S113021061011092D2011092840110926001109237
S1130220CF011092890110928A0110928B011092D1
S11302308C0110928D0110928E0110928F011092F8
S113024090010895E82FF0E0EE0FFF1FEB57FE4FEB
S113025081E020813181232B09F080E00895E82F8B
S1130260F0E0EE0FFF1FEB57FE4F7183608308959C
S11302702FEF260F662369F0A82FB92F80E0ED91A8
S11302808E27E82FF0E0E05AFF4F80812150B8F725
S1130290089580E008957F928F929F92AF92BF92CB
S11302A0CF92DF92EF92FF920F931F93CF93DF933E
S11302B0CDB7DEB727970FB6F894DEBF0FBECDBF1C
S11302C0909183019F5F90938301882331F0809103
S11302D0D1018F5F8093D10105C08091D5018F5FDB
S11302E08093D501923009F0DFC010928301809190
S11302F0D10191E0811101C090E01092D1011092DE
S1130300D501882329F0809184018F5F8093840133
S11303108091D301891769F08091D401803510F060
S11303202DE101C02BE0820F8093D4019093D3017F
S113033005C08091D4018C5E8093D401E091D401F6
S1130340E03A08F4B1C02091890130918A014091CA
S11303508B0150918C0160918D0170918E0180917F
S11303608F019091900101E0FAD12093890130939B
S11303708A0140938B0150938C0160938D0170939B
S11303808E0180938F0190939001F0918401F53058
S113039018F0906890939001E05AE093D401109281
S11303A084018090890190908A01A0908B01B09083
S11303B08C01C0908D01D0908E01E0908F01F0905F
S11303C0900180E6881681EA980609F06DC089825A
S11303D0282D392D4A2D5B2D6C2D7D2D8E2D9F2D95
S11303E008E0BDD12A83282D392D4A2D5B2D6C2D93
S11303F07D2D8E2D9F2D00E1B2D12B83282D392DFB
S11304004A2D5B2D6C2D7D2D8E2D9F2D08E1A7D1BE
S11304102C83282D392D4A2D5B2D6C2D7D2D8E2D71
S11304209F2D00E29CD1122F2D83282D392D4A2D8A
S11304305B2D6C2D7D2D8E2D9F2D08E290D1722E7B
S11304402E83282D392D4A2D5B2D6C2D7D2D8E2D3F
S11304509F2D00E384D1022F2F8364E0CE01019607
S113046007DF181321C08EE778121EC00F30E1F4A5
S113047061E08DE008DE84EF91E090938601809343
S113048085011092D901FE013196A5E9B1E09E01E2
S1130490285F3F4F81918D93E217F307D9F785E0E9
S11304A0809362018CB1559A27960FB6F894DEBFFB
S11304B00FBECDBFDF91CF911F910F91FF90EF90B1
S11304C0DF90CF90BF90AF909F908F907F900895D2
S11304D01F920F920FB60F9211242F933F934F93B5
S11304E05F936F937F938F939F93AF93BF93EF9398
S11304F0FF938091DB0160DE8093D8018091DC0161
S1130500882381F18091DE0191E0980F9093DE01C0
S1130510811128C0E091DF018091DD01E81710F01E
S113052068DE20C061E070E00090DA0102C0660F6E
S1130530771F0A94E2F7F0E0E759FE4F80816823C1
S11305408091D701A0DD8091DA018F5F883018F4A3
S11305508093DA0107C01092DA018091DF018F5F86
S11305608093DF018091DE01883010F01092DE016B
S11305708091D901882339F08091DC01811103C075
S11305808091D80188DEFF91EF91BF91AF919F9147
S11305908F917F916F915F914F913F912F910F9028
S11305A00FBE0F901F9018951F920F920FB60F92C7
S11305B011240F931F932F933F934F935F936F9344
S11305C07F938F939F93AF93BF93CF93DF93EF93D7
S11305D0FF9384E682BF7894C5E8D1E009E811E08E
S11305E088819981009719F0019799838883809174
S11305F06201882321F081E025DE8111559A22963B
S1130600C017D10769F7FF91EF91DF91CF91BF91A7
S1130610AF919F918F917F916F915F914F913F9196
S11306202F911F910F910F900FBE0F901F9018954F
S11306301F920F920FB60F9211242F933F934F9353
S11306405F936F937F938F939F93AF93BF93EF9336
S1130650FF93E0919401F0E0EB56FE4F80818CB95A
S1130660809194018F5F873018F4809394010CC0BB
S11306701092940180916201815080936201559897
S11306806AE070E081E0EBDDFF91EF91BF91AF9103
S11306909F918F917F916F915F914F913F912F9196
S11306A00F900FBE0F901F90189510928301109217
S11306B0D5011092D10161E08DE025DD60E08DE08F
S11306C0E2DC61E080E01FDD61E080E0DCDC60E032
S11306D070E080E0C4DD109262011092940180E029
S11306E0B1DD8823E1F38CDDFACF10BC8FEC89B93E
S11306F0539A80B5866880BD82E090E04CD081BF7B
S113070088E074DDACDC80ED97E03DDDB1DCACDC91
S1130710B6DC7894CADFA1E21A2EAA1BBB1BFD012A
S11307200DC0AA1FBB1FEE1FFF1FA217B307E407CC
S1130730F50720F0A21BB30BE40BF50B661F771F24
S1130740881F991F1A9469F7609570958095909504
S11307509B01AC01BD01CF01089597FB10F81694DD
S113076000080F93083098F00850232F342F452F9A
S1130770562F672F782F892F902DF4CF05949795B6
S113078087957795679557954795379527950A9552
S1130790AAF70F910895E199FECF9FBB8EBBE09A13
S10D07A099278DB30895F894FFCF54
S11307AAEAD496A8122C6E507F41033D87B9FBC543
S11307BAA59BD9E75D63211F300E4C72C8F6B48A33
S11307CA744A08368CB2F0CEE1DF9DA31927655B23
S11307DA3B054779C3FDBF81AE90D2EC56682A1413
S11307EAB38DCFF14B75370926185A64DEE0A29C03
S11307FAFCC280BE043A78466957152B91AFEDD3F3
S113080A2D13516FD5EBA997B886C4FA407E3C02E2
S113081A625C1E209AA4E6D8F7C98BB50F31734DD2
S113082A5866241AA09EDCE2CDF3B18F350B4977C2
S113083A17296B55EFD193AD82BCFEC07A440638B2
S113084AC6F8BA843E00427C536D2F11AB95D7E9A2
S113085A89B7F5CB714F0D331C22605EE4DA98A692
S113086A013F7D43F9C785BB94AAE8D66C52102E82
S113087A4E70320CB688CAF4DBE5A799231D5F6172
S113088A9FA1E3DD67591B250A347648F2CC8EB062
S113089AD0EEAC922816546A457B3907BD83C1FF52
S9030000FC
