:1000000012C02CC0A2C02AC029C028C027C026C048
:1000100025C033C023C022C021C020C01FC01EC0C5
:100020001DC01CC01BC011241FBECFE5D4E0DEBF25
:10003000CDBF10E0A0E6B0E0E4ECF2E002C0059035
:100040000D92A036B107D9F720E0A0E6B0E001C0DC
:100050001D92A638B207E1F714D132C1D1CF13BE39
:1000600083B7846083BF12BE089589B7816089BF5A
:10007000089589B78E7F89BF08951F920F920FB69A
:100080000F9211248F939F93809161009091620051
:100090008436910548F48091610090916200019648
:1000A000909362008093610012BE809166009091EF
:1000B00067000196909367008093660080916600C8
:1000C00090916700C29771F4109265008091600072
:1000D0008F5F809360008091600081BF1092670005
:1000E000109266009F918F910F900FBE0F901F90FE
:1000F0001895CF93809164008823F9F0A2E7B0E0CF
:10010000ECE7F0E020E030E050E06FEF7FEFCFEF82
:100110004D91819190E0C49F800D911D112486170F
:10012000970710F4522FBC012F5F3F4F809164005E
:1001300090E02817390764F301C050E0E52FF0E0A4
:10014000E859FF4F8081CF9108951F920F920FB60B
:100150000F9211242F933F934F935F936F937F934D
:100160008F939F93AF93BF93EF93FF937894809176
:100170006500811112C080916100909162000B971F
:1001800060F010926200109261001092670010926D
:10019000660012BE81E08093650080916500813029
:1001A00009F05CC080916100909162000B9708F4A7
:1001B00055C010926200109261008091660090918B
:1001C00067004A9778F0AB9AC59A53DF8BB78F7761
:1001D0008BBF78948EDF682F82E090E064D0AB9A7A
:1001E000C59A39C08091660090916700489798F150
:1001F000E09164008091660090916700F0E0EE5815
:10020000FF4F8851808392B780916300891748F42B
:10021000E091640082B7F0E0EE58FF4F895680838A
:1002200009C0E091640092B7F0E0EE58FF4F89E614
:10023000891B8083E091640080916000F0E0E859C0
:10024000FF4F808380916400893028F4809164009E
:100250008F5F8093640082E08093650080916500E9
:10026000FF91EF91BF91AF919F918F917F916F918E
:100270005F914F913F912F910F900FBE0F901F9064
:100280001895EDDEA39AAB98BD9AC5988B98939874
:1002900085B78C6085BF8BB780688BBF8AE081BFD4
:1002A000E4DE7894FFCF262FE199FECF9FBB8EBB73
:1002B0002DBB0FB6F894E29AE19A0FBE019608950D
:0402C000F894FFCFE0
:00000001FF
