S016000041544D454741385F3130304B485A2E737265634A
S113000012C021C020C01FC01EC01DC01CC01BC008
S11300101AC01AC018C017C016C015C014C013C027
S113002012C011C010C011241FBECFE5D4E0DEBF42
S1130030CDBF20E0A0E6B0E001C01D92A336B20718
S1130040E1F73FD042C0DCCF1F920F920FB60F9260
S113005011248F939F938091600090916100019689
S11300608931910529F0909361008093600012C05A
S113007010926100109260008091620080FD06C0C1
S1130080969AC59A81E08093620004C09698C598B8
S11300901092620086E082BF9F918F910F900FBEF5
S11300A00F901F9018958E9ABD9AC59813BE83B76A
S11300B0846083BF86E082BF089589B7816089BF69
S11100C00895F1DFFADF7894FFCFF894FFCFB4
S9030000FC
