:1000000012C02CC02BC02AC029C028C063C226C081
:1000100025C0CBC223C022C014C320C01FC01EC035
:100020001DC01CC01BC011241FBECFE5D4E0DEBF25
:10003000CDBF11E0A0E6B0E0E2ECF7E002C0059031
:100040000D92A036B107D9F721E0A0E6B1E001C0DA
:100050001D92A13EB207E1F752D3B1C3D1CF1FBC6D
:100060008EB589608EBD089589B7806189BF089576
:1000700013BE83B7856083BF84E682BF089589B7C6
:10008000816089BF08958830F8F0662371F048B325
:10009000877021E030E0B90102C0660F771F8A95B2
:1000A000E2F7CB01842B88BB089548B3877021E029
:1000B00030E0B90102C0660F771F8A95E2F7CB01E5
:1000C0008095842388BB0895662371F042B38770BE
:1000D00021E030E0B90102C0660F771F8A95E2F790
:1000E000CB01842B82BB089542B3877021E030E0BE
:1000F000B90102C0660F771F8A95E2F7CB018095A0
:10010000842382BB08958830F8F0662371F047B3EA
:10011000877021E030E0B90102C0660F771F8A9531
:10012000E2F7CB01842B87BB089547B3877021E0AA
:1001300030E0B90102C0660F771F8A95E2F7CB0164
:100140008095842387BB0895662371F041B387703F
:1001500021E030E0B90102C0660F771F8A95E2F70F
:10016000CB01842B81BB089541B3877021E030E03F
:10017000B90102C0660F771F8A95E2F7CB0180951F
:10018000842381BB08959C0140E050E060E271EA65
:1001900087E090E0CCD23BBD2ABD61E08091D701E1
:1001A000B2DF60E08091DB01AEDF1092DC011092E3
:1001B000D9010895883068F026B3877030E0A9012E
:1001C00002C0559547958A95E2F740FF0FC081E040
:1001D000089520B3877030E0A90102C05595479576
:1001E0008A95E2F740FF04C081E0089580E0089519
:1001F00080E008958093DB01089560E08091D7014D
:1002000042DF1092DC0108958091D90181111DC057
:1002100081E08093D901109261011092D201109275
:100220008401109260011092CF0110928901109206
:100230008A0110928B0110928C0110928D01109204
:100240008E0110928F01109290010895E82FF0E036
:10025000EE0FFF1FEB57FE4F80819181892B11F02C
:1002600080E0089581E00895E82FF0E0EE0FFF1F91
:10027000EB57FE4F718360830895DC01E0E008C016
:100280009C91E927F0E0E05AFF4FE081682F11963A
:100290008FEF860F6111F4CF8E2F0895BF92CF920A
:1002A000DF92EF92FF920F931F93CF93DF93CDB71F
:1002B000DEB727970FB6F894DEBF0FBECDBF909183
:1002C00083019F5F90938301882331F08091D10156
:1002D0008F5F8093D10105C08091D5018F5F80939E
:1002E000D501923009F0E6C0109283018091D101CE
:1002F000882311F081E001C080E01092D1011092BA
:10030000D501882329F0909184019F5F9093840107
:100310009091D301891769F09091D401903510F430
:100320002BE001C02DE1920F9093D4018093D30173
:1003300005C08091D4018C5E8093D401E091D401FA
:10034000E03A08F4B7C02091890130918A014091C8
:100350008B0150918C0160918D0170918E01809183
:100360008F019091900101E006D220938901309392
:100370008A0140938B0150938C0160938D0170939F
:100380008E0180938F0190939001F0918401F5305C
:1003900018F0906890939001E05AE093D401109285
:1003A0008401E0918901F0918A01D0908B01E09065
:1003B0008C01F0908D0110918E01B0918F01A09170
:1003C00090018E2F9F2F8036914A09F073C0E983E8
:1003D0002E2F3F2F4D2D5E2D6F2D712F8B2F9A2F8E
:1003E00008E0C9D12A832E2F3F2F4D2D5E2D6F2D72
:1003F000712F8B2F9A2F00E1BED12B832E2F3F2FF1
:100400004D2D5E2D6F2D712F8B2F9A2F08E1B3D1BB
:100410002C832E2F3F2F4D2D5E2D6F2D712F8B2F67
:100420009A2F00E2A8D1C22E2D832E2F3F2F4D2DC3
:100430005E2D6F2D712F8B2F9A2F08E29CD1B22E3B
:100440002E832E2F3F2F4D2D5E2D6F2D712F8B2F35
:100450009A2F00E390D1122F2F8364E0CE010196F2
:100460000CDFC81227C08EE7B81224C01F3011F568
:1004700061E08DE008DE64EF71E080E0F5DE10926F
:10048000D90180E090E00CC0E1E0F0E0EC0FFD1F4E
:10049000E80FF91F2081FC01EB56FE4F20830196E7
:1004A000873091058CF385E0809362018CB18AB12D
:1004B00080628AB927960FB6F894DEBF0FBECDBF13
:1004C000DF91CF911F910F91FF90EF90DF90CF9030
:1004D000BF9008951F920F920FB60F9211242F9381
:1004E0003F934F935F936F937F938F939F93AF93BC
:1004F000BF93EF93FF938091DB015CDE8093D80183
:100500008091DC01882379F18091DE0191E0980FE0
:100510009093DE01811127C0E091DF018091DD0120
:10052000E81710F06ADE1FC0F0E0E759FE4F808147
:1005300061E070E00090DA0102C0660F771F0A9454
:10054000E2F768238091D7019EDD8091DA018F5F09
:100550008093DA01883038F01092DA018091DF015F
:100560008F5F8093DF018091DE01883010F0109260
:10057000DE018091D901882339F08091DC0181115D
:1005800003C08091D8018ADEFF91EF91BF91AF91B6
:100590009F918F917F916F915F914F913F912F919B
:1005A0000F900FBE0F901F9018951F920F920FB6CD
:1005B0000F9211242F933F934F935F936F937F93E9
:1005C0008F939F93AF93BF93CF93DF93EF93FF935B
:1005D00084E682BF7894C0E0D0E01DC0FE01EE0F3B
:1005E000FF1FEB57FE4F80819181009741F0FE0184
:1005F000EE0FFF1FEB57FE4F019791838083809191
:100600006201882339F081E021DE882319F08AB164
:1006100080628AB92196C230D10504F3FF91EF912F
:10062000DF91CF91BF91AF919F918F917F916F910A
:100630005F914F913F912F910F900FBE0F901F90A0
:1006400018951F920F920FB60F9211242F933F937C
:100650004F935F936F937F938F939F93AF93BF93CA
:10066000EF93FF93E0919401F0E0EB56FE4F808111
:100670008CB9809194018F5F80939401873070F0E2
:1006800010929401809162018150809362018AB13D
:100690008F7D8AB96AE070E081E0E6DDFF91EF913D
:1006A000BF91AF919F918F917F916F915F914F918A
:1006B0003F912F910F900FBE0F901F9018951092A1
:1006C00083011092D5011092D10161E08DE01BDD14
:1006D00060E08DE0D8DC61E080E015DD61E080E085
:1006E000D2DC60E070E080E0BFDD10926201109229
:1006F000940180E0ABDD8823E1F386DDFACF10BC06
:100700008FEC89B98AB188608AB980B5866880BD66
:1007100082E090E04CD081BF88E06CDDA0DC80ED11
:1007200097E031DDA5DCA0DCAADC7894C8DFA1E28B
:100730001A2EAA1BBB1BFD010DC0AA1FBB1FEE1F5B
:10074000FF1FA217B307E407F50720F0A21BB30BA6
:10075000E40BF50B661F771F881F991F1A9469F722
:1007600060957095809590959B01AC01BD01CF017E
:10077000089597FB10F8169400080F93083098F02E
:100780000850232F342F452F562F672F782F892F6E
:10079000902DF4CF05949795879577956795579504
:1007A0004795379527950A95AAF70F910895E199EE
:1007B000FECF9FBB8EBBE09A99278DB30895F89426
:0207C000FFCF69
:1007C200EAD496A8122C6E507F41033D87B9FBC52F
:1007D200A59BD9E75D63211F300E4C72C8F6B48A1F
:1007E200744A08368CB2F0CEE1DF9DA31927655B0F
:1007F2003B054779C3FDBF81AE90D2EC56682A14FF
:10080200B38DCFF14B75370926185A64DEE0A29CEE
:10081200FCC280BE043A78466957152B91AFEDD3DE
:100822002D13516FD5EBA997B886C4FA407E3C02CE
:10083200625C1E209AA4E6D8F7C98BB50F31734DBE
:100842005866241AA09EDCE2CDF3B18F350B4977AE
:1008520017296B55EFD193AD82BCFEC07A4406389E
:10086200C6F8BA843E00427C536D2F11AB95D7E98E
:1008720089B7F5CB714F0D331C22605EE4DA98A67E
:10088200013F7D43F9C785BB94AAE8D66C52102E6E
:100892004E70320CB688CAF4DBE5A799231D5F615E
:1008A2009FA1E3DD67591B250A347648F2CC8EB04E
:1008B200D0EEAC922816546A457B3907BD83C1FF3E
:00000001FF
