:1000000012C021C020C01FC01EC01DC01CC01BC00C
:100010001AC01AC018C017C016C015C014C013C02B
:1000200012C011C010C011241FBECFE5D4E0DEBF46
:10003000CDBF20E0A0E6B0E001C01D92A336B2071C
:10004000E1F74BD04EC0DCCF1F920F920FB60F924C
:1000500011248F939F93809160009091610001968D
:1000600090936100809360004997D1F410926100F1
:10007000109260008091620080FD0AC082B38064AB
:1000800082BB88B3806288BB81E08093620008C035
:1000900082B38F7B82BB88B38F7D88BB1092620056
:1000A00086E082BF9F918F910F900FBE0F901F909F
:1000B000189581B3806481BB87B3806287BB88B3A6
:1000C0008F7D88BB13BE83B7846083BF86E082BF09
:1000D000089589B7816089BF0895EBDFFADF7894CE
:0600E000FFCFF894FFCFF2
:00000001FF
